{
  "contractName": "WikiChainArticle",
  "abi": [
    {
      "inputs": [],
      "payable": true,
      "stateMutability": "payable",
      "type": "constructor"
    },
    {
      "anonymous": false,
      "inputs": [
        {
          "indexed": false,
          "internalType": "address",
          "name": "contractaddress",
          "type": "address"
        },
        {
          "indexed": false,
          "internalType": "string",
          "name": "url",
          "type": "string"
        },
        {
          "indexed": false,
          "internalType": "uint256",
          "name": "pageid",
          "type": "uint256"
        },
        {
          "indexed": false,
          "internalType": "uint256",
          "name": "revid",
          "type": "uint256"
        },
        {
          "indexed": false,
          "internalType": "string",
          "name": "title",
          "type": "string"
        },
        {
          "indexed": false,
          "internalType": "string",
          "name": "timestamp",
          "type": "string"
        },
        {
          "indexed": false,
          "internalType": "string",
          "name": "hash_description",
          "type": "string"
        }
      ],
      "name": "callContract",
      "type": "event"
    },
    {
      "anonymous": false,
      "inputs": [
        {
          "indexed": false,
          "internalType": "address",
          "name": "contractaddress",
          "type": "address"
        },
        {
          "indexed": false,
          "internalType": "string",
          "name": "url",
          "type": "string"
        },
        {
          "indexed": false,
          "internalType": "uint256",
          "name": "pageid",
          "type": "uint256"
        },
        {
          "indexed": false,
          "internalType": "uint256",
          "name": "revid",
          "type": "uint256"
        }
      ],
      "name": "dataSet",
      "type": "event"
    },
    {
      "anonymous": false,
      "inputs": [
        {
          "indexed": false,
          "internalType": "address",
          "name": "sender",
          "type": "address"
        },
        {
          "indexed": false,
          "internalType": "uint256",
          "name": "value",
          "type": "uint256"
        },
        {
          "indexed": false,
          "internalType": "uint256",
          "name": "timestamp",
          "type": "uint256"
        }
      ],
      "name": "newDepositForArticle",
      "type": "event"
    },
    {
      "payable": true,
      "stateMutability": "payable",
      "type": "fallback"
    },
    {
      "constant": true,
      "inputs": [],
      "name": "hash_description",
      "outputs": [
        {
          "internalType": "string",
          "name": "",
          "type": "string"
        }
      ],
      "payable": false,
      "stateMutability": "view",
      "type": "function"
    },
    {
      "constant": true,
      "inputs": [],
      "name": "lastmodified",
      "outputs": [
        {
          "internalType": "string",
          "name": "",
          "type": "string"
        }
      ],
      "payable": false,
      "stateMutability": "view",
      "type": "function"
    },
    {
      "constant": true,
      "inputs": [],
      "name": "pageid",
      "outputs": [
        {
          "internalType": "uint256",
          "name": "",
          "type": "uint256"
        }
      ],
      "payable": false,
      "stateMutability": "view",
      "type": "function"
    },
    {
      "constant": true,
      "inputs": [],
      "name": "revid",
      "outputs": [
        {
          "internalType": "uint256",
          "name": "",
          "type": "uint256"
        }
      ],
      "payable": false,
      "stateMutability": "view",
      "type": "function"
    },
    {
      "constant": true,
      "inputs": [],
      "name": "title",
      "outputs": [
        {
          "internalType": "string",
          "name": "",
          "type": "string"
        }
      ],
      "payable": false,
      "stateMutability": "view",
      "type": "function"
    },
    {
      "constant": true,
      "inputs": [],
      "name": "url",
      "outputs": [
        {
          "internalType": "string",
          "name": "",
          "type": "string"
        }
      ],
      "payable": false,
      "stateMutability": "view",
      "type": "function"
    },
    {
      "constant": false,
      "inputs": [
        {
          "internalType": "address",
          "name": "reg",
          "type": "address"
        },
        {
          "components": [
            {
              "internalType": "uint256",
              "name": "pageid",
              "type": "uint256"
            },
            {
              "internalType": "uint256",
              "name": "revid",
              "type": "uint256"
            },
            {
              "internalType": "string",
              "name": "title",
              "type": "string"
            },
            {
              "internalType": "string",
              "name": "lastmodified",
              "type": "string"
            },
            {
              "internalType": "string",
              "name": "url",
              "type": "string"
            },
            {
              "internalType": "string",
              "name": "description",
              "type": "string"
            }
          ],
          "internalType": "struct WikiChainUtilities.Article",
          "name": "data",
          "type": "tuple"
        }
      ],
      "name": "setDatas",
      "outputs": [],
      "payable": false,
      "stateMutability": "nonpayable",
      "type": "function"
    },
    {
      "constant": false,
      "inputs": [],
      "name": "callDatas",
      "outputs": [],
      "payable": false,
      "stateMutability": "nonpayable",
      "type": "function"
    },
    {
      "constant": true,
      "inputs": [],
      "name": "toString",
      "outputs": [
        {
          "components": [
            {
              "internalType": "address",
              "name": "myaddress",
              "type": "address"
            },
            {
              "internalType": "uint256",
              "name": "pageid",
              "type": "uint256"
            },
            {
              "internalType": "uint256",
              "name": "revid",
              "type": "uint256"
            },
            {
              "internalType": "string",
              "name": "url",
              "type": "string"
            },
            {
              "internalType": "string",
              "name": "title",
              "type": "string"
            },
            {
              "internalType": "string",
              "name": "description",
              "type": "string"
            },
            {
              "internalType": "string",
              "name": "lastmodified",
              "type": "string"
            }
          ],
          "internalType": "struct WikiChainUtilities.ArticleOutput",
          "name": "",
          "type": "tuple"
        }
      ],
      "payable": false,
      "stateMutability": "view",
      "type": "function"
    }
  ],
  "bytecode": "0x608060405260003411156200004c577ff5e9ca8cbdceb60d0b36065aba648e8b4572e6ae2a6b0518f04e389cc78836cd333442604051620000439392919062000074565b60405180910390a15b62000117565b6200005d81620000db565b82525050565b6200006e81620000d1565b82525050565b60006060820190506200008b600083018662000052565b6200009a602083018562000063565b620000a9604083018462000063565b949350505050565b600073ffffffffffffffffffffffffffffffffffffffff82169050919050565b6000819050919050565b6000620000e882620000ef565b9050919050565b6000620000fc8262000103565b9050919050565b60006200011082620000b1565b9050919050565b6110ce80620001276000396000f3fe6080604052600436106100865760003560e01c80634a79d50c116100595780634a79d50c1461017d5780635600f04f146101a857806367382e8c146101d3578063be456325146101fe578063c68226f81461021557610086565b80630bc8d6ac146100d357806318534ce6146100fe57806347e4680614610129578063497af67714610154575b6000803690501461009657600080fd5b7ff5e9ca8cbdceb60d0b36065aba648e8b4572e6ae2a6b0518f04e389cc78836cd3334426040516100c993929190610e67565b60405180910390a1005b3480156100df57600080fd5b506100e8610240565b6040516100f59190610e9e565b60405180910390f35b34801561010a57600080fd5b506101136102de565b6040516101209190610e9e565b60405180910390f35b34801561013557600080fd5b5061013e61037c565b60405161014b9190610ec0565b60405180910390f35b34801561016057600080fd5b5061017b60048036036101769190810190610b4e565b61063e565b005b34801561018957600080fd5b50610192610747565b60405161019f9190610e9e565b60405180910390f35b3480156101b457600080fd5b506101bd6107e5565b6040516101ca9190610e9e565b60405180910390f35b3480156101df57600080fd5b506101e8610883565b6040516101f59190610ee2565b60405180910390f35b34801561020a57600080fd5b50610213610889565b005b34801561022157600080fd5b5061022a6108d6565b6040516102379190610ee2565b60405180910390f35b60058054600181600116156101000203166002900480601f0160208091040260200160405190810160405280929190818152602001828054600181600116156101000203166002900480156102d65780601f106102ab576101008083540402835291602001916102d6565b820191906000526020600020905b8154815290600101906020018083116102b957829003601f168201915b505050505081565b60048054600181600116156101000203166002900480601f0160208091040260200160405190810160405280929190818152602001828054600181600116156101000203166002900480156103745780601f1061034957610100808354040283529160200191610374565b820191906000526020600020905b81548152906001019060200180831161035757829003601f168201915b505050505081565b6103846108dc565b6040518060e001604052803073ffffffffffffffffffffffffffffffffffffffff1681526020016000548152602001600154815260200160028054600181600116156101000203166002900480601f0160208091040260200160405190810160405280929190818152602001828054600181600116156101000203166002900480156104515780601f1061042657610100808354040283529160200191610451565b820191906000526020600020905b81548152906001019060200180831161043457829003601f168201915b5050505050815260200160038054600181600116156101000203166002900480601f0160208091040260200160405190810160405280929190818152602001828054600181600116156101000203166002900480156104f15780601f106104c6576101008083540402835291602001916104f1565b820191906000526020600020905b8154815290600101906020018083116104d457829003601f168201915b5050505050815260200160048054600181600116156101000203166002900480601f0160208091040260200160405190810160405280929190818152602001828054600181600116156101000203166002900480156105915780601f1061056657610100808354040283529160200191610591565b820191906000526020600020905b81548152906001019060200180831161057457829003601f168201915b5050505050815260200160058054600181600116156101000203166002900480601f0160208091040260200160405190810160405280929190818152602001828054600181600116156101000203166002900480156106315780601f1061060657610100808354040283529160200191610631565b820191906000526020600020905b81548152906001019060200180831161061457829003601f168201915b5050505050815250905090565b81600660006101000a81548173ffffffffffffffffffffffffffffffffffffffff021916908373ffffffffffffffffffffffffffffffffffffffff160217905550806000015160008190555080602001516001819055508060400151600390805190602001906106af92919061092f565b508060600151600590805190602001906106ca92919061092f565b508060800151600290805190602001906106e592919061092f565b508060a001516004908051906020019061070092919061092f565b507f7b3c1e320e5e7fe3ab39c97301ad7d1ae0d4102131247b3a3cc841f62fbd187030600260005460015460405161073b9493929190610d90565b60405180910390a15050565b60038054600181600116156101000203166002900480601f0160208091040260200160405190810160405280929190818152602001828054600181600116156101000203166002900480156107dd5780601f106107b2576101008083540402835291602001916107dd565b820191906000526020600020905b8154815290600101906020018083116107c057829003601f168201915b505050505081565b60028054600181600116156101000203166002900480601f01602080910402602001604051908101604052809291908181526020018280546001816001161561010002031660029004801561087b5780601f106108505761010080835404028352916020019161087b565b820191906000526020600020905b81548152906001019060200180831161085e57829003601f168201915b505050505081565b60005481565b7fb9fba9299416d17b0fcc10a7320d508ef5a1f6be319ff1d12afe717cb3958fb53060026000546001546003600560046040516108cc9796959493929190610ddc565b60405180910390a1565b60015481565b6040518060e00160405280600073ffffffffffffffffffffffffffffffffffffffff1681526020016000815260200160008152602001606081526020016060815260200160608152602001606081525090565b828054600181600116156101000203166002900490600052602060002090601f016020900481019282601f1061097057805160ff191683800117855561099e565b8280016001018555821561099e579182015b8281111561099d578251825591602001919060010190610982565b5b5090506109ab91906109af565b5090565b6109d191905b808211156109cd5760008160009055506001016109b5565b5090565b90565b6000813590506109e38161105d565b92915050565b600082601f8301126109fa57600080fd5b8135610a0d610a0882610f2a565b610efd565b91508082526020830160208301858383011115610a2957600080fd5b610a3483828461100a565b50505092915050565b600060c08284031215610a4f57600080fd5b610a5960c0610efd565b90506000610a6984828501610b39565b6000830152506020610a7d84828501610b39565b602083015250604082013567ffffffffffffffff811115610a9d57600080fd5b610aa9848285016109e9565b604083015250606082013567ffffffffffffffff811115610ac957600080fd5b610ad5848285016109e9565b606083015250608082013567ffffffffffffffff811115610af557600080fd5b610b01848285016109e9565b60808301525060a082013567ffffffffffffffff811115610b2157600080fd5b610b2d848285016109e9565b60a08301525092915050565b600081359050610b4881611074565b92915050565b60008060408385031215610b6157600080fd5b6000610b6f858286016109d4565b925050602083013567ffffffffffffffff811115610b8c57600080fd5b610b9885828601610a3d565b9150509250929050565b610bab81610fd4565b82525050565b610bba81610f98565b82525050565b6000610bcb82610f6b565b610bd58185610f76565b9350610be5818560208601611019565b610bee8161104c565b840191505092915050565b6000610c0482610f6b565b610c0e8185610f87565b9350610c1e818560208601611019565b610c278161104c565b840191505092915050565b600081546001811660008114610c4f5760018114610c7557610cb9565b607f6002830416610c608187610f87565b955060ff198316865260208601935050610cb9565b60028204610c838187610f87565b9550610c8e85610f56565b60005b82811015610cb057815481890152600182019150602081019050610c91565b80880195505050505b505092915050565b600060e083016000830151610cd96000860182610bb1565b506020830151610cec6020860182610d72565b506040830151610cff6040860182610d72565b5060608301518482036060860152610d178282610bc0565b91505060808301518482036080860152610d318282610bc0565b91505060a083015184820360a0860152610d4b8282610bc0565b91505060c083015184820360c0860152610d658282610bc0565b9150508091505092915050565b610d7b81610fca565b82525050565b610d8a81610fca565b82525050565b6000608082019050610da56000830187610ba2565b8181036020830152610db78186610c32565b9050610dc66040830185610d81565b610dd36060830184610d81565b95945050505050565b600060e082019050610df1600083018a610ba2565b8181036020830152610e038189610c32565b9050610e126040830188610d81565b610e1f6060830187610d81565b8181036080830152610e318186610c32565b905081810360a0830152610e458185610c32565b905081810360c0830152610e598184610c32565b905098975050505050505050565b6000606082019050610e7c6000830186610ba2565b610e896020830185610d81565b610e966040830184610d81565b949350505050565b60006020820190508181036000830152610eb88184610bf9565b905092915050565b60006020820190508181036000830152610eda8184610cc1565b905092915050565b6000602082019050610ef76000830184610d81565b92915050565b6000604051905081810181811067ffffffffffffffff82111715610f2057600080fd5b8060405250919050565b600067ffffffffffffffff821115610f4157600080fd5b601f19601f8301169050602081019050919050565b60008190508160005260206000209050919050565b600081519050919050565b600082825260208201905092915050565b600082825260208201905092915050565b6000610fa382610faa565b9050919050565b600073ffffffffffffffffffffffffffffffffffffffff82169050919050565b6000819050919050565b6000610fdf82610fe6565b9050919050565b6000610ff182610ff8565b9050919050565b600061100382610faa565b9050919050565b82818337600083830152505050565b60005b8381101561103757808201518184015260208101905061101c565b83811115611046576000848401525b50505050565b6000601f19601f8301169050919050565b61106681610f98565b811461107157600080fd5b50565b61107d81610fca565b811461108857600080fd5b5056fea365627a7a72315820d2bf909ec26412932825a511ff5f1885266adc051c070ce9a04684ef818b49c66c6578706572696d656e74616cf564736f6c634300050c0040",
  "source": "pragma solidity ^0.5.0;\npragma experimental ABIEncoderV2;\n\nimport \"./WikiChainUtilities.sol\";\n\n/**\n * \n * Standard Template for the articles on the blockchain\n * \n**/\ncontract WikiChainArticle {\n\n\tuint public pageid;\n\tuint public revid;\n\tstring public url;\n\tstring public title;\n\tstring public hash_description; // HTML Texts are too big for savings on ethereum. Save it on IPFS or Swarm\n\tstring public lastmodified;\n\taddress register;\n\n\tevent newDepositForArticle( address sender, uint value, uint timestamp);\n\tevent dataSet(address contractaddress, string url, uint pageid, uint revid);\n\tevent callContract(address contractaddress , string url, uint pageid, uint revid, string title, string timestamp, string hash_description);\n\n\tconstructor () public payable {\n\t\t if (msg.value > 0){\n\t\t \temit newDepositForArticle( msg.sender, msg.value, block.timestamp);\n\t\t }\n\t}\n\n\t// If the contract received some ether, it will handel it\n\tfunction () external payable {\n\t    require(msg.data.length == 0);\n\t    emit newDepositForArticle( msg.sender, msg.value, block.timestamp);\n\t}\n\t\n\tfunction setDatas (address reg, WikiChainUtilities.Article memory data) public {\n        register = reg;\n\t    pageid = data.pageid;\n\t    revid = data.revid;\n\t    title = data.title;\n\t    lastmodified = data.lastmodified;\n\t    url = data.url;\n\t    hash_description = data.description;\n\t   \t    \n\t    emit dataSet( address(this), url, pageid, revid);\n\t}\n\n\tfunction callDatas () public {\n\t\temit callContract(address(this), url, pageid, revid, title, lastmodified, hash_description);\n\t}\n\t\n\t\n\tfunction toString () public view returns (WikiChainUtilities.ArticleOutput memory) {\n\t    return WikiChainUtilities.ArticleOutput(address(this), pageid, revid, url, title, hash_description, lastmodified);\n\t}\n\n}",
  "sourcePath": "/home/ngani/Dokumente/projects/WikiChain/contracts/WikiChainArticle.sol",
  "compiler": {
    "name": "solc",
    "version": "0.5.12+commit.7709ece9.Emscripten.clang"
  },
  "schemaVersion": "3.0.19",
  "updatedAt": "2019-12-21T18:44:30.121Z",
  "networkType": "ethereum",
  "devdoc": {
    "methods": {}
  },
  "userdoc": {
    "methods": {},
    "notice": " * Standard Template for the articles on the blockchain  *"
  }
}