{
  "contractName": "WikiChain",
  "abi": [
    {
      "inputs": [],
      "payable": true,
      "stateMutability": "payable",
      "type": "constructor"
    },
    {
      "anonymous": false,
      "inputs": [
        {
          "indexed": false,
          "internalType": "address",
          "name": "contractaddress",
          "type": "address"
        },
        {
          "indexed": false,
          "internalType": "string",
          "name": "url",
          "type": "string"
        },
        {
          "indexed": false,
          "internalType": "uint256",
          "name": "pageid",
          "type": "uint256"
        },
        {
          "indexed": false,
          "internalType": "uint256",
          "name": "revid",
          "type": "uint256"
        },
        {
          "indexed": false,
          "internalType": "string",
          "name": "title",
          "type": "string"
        },
        {
          "indexed": false,
          "internalType": "string",
          "name": "timestamp",
          "type": "string"
        },
        {
          "indexed": false,
          "internalType": "string",
          "name": "hash_description",
          "type": "string"
        }
      ],
      "name": "callContractData",
      "type": "event"
    },
    {
      "anonymous": false,
      "inputs": [
        {
          "indexed": false,
          "internalType": "address",
          "name": "contractaddress",
          "type": "address"
        },
        {
          "indexed": false,
          "internalType": "string",
          "name": "url",
          "type": "string"
        },
        {
          "indexed": false,
          "internalType": "uint256",
          "name": "pageid",
          "type": "uint256"
        },
        {
          "indexed": false,
          "internalType": "uint256",
          "name": "revid",
          "type": "uint256"
        }
      ],
      "name": "contractAdded",
      "type": "event"
    },
    {
      "anonymous": false,
      "inputs": [
        {
          "indexed": false,
          "internalType": "address",
          "name": "contractaddress",
          "type": "address"
        },
        {
          "indexed": false,
          "internalType": "string",
          "name": "url",
          "type": "string"
        },
        {
          "indexed": false,
          "internalType": "uint256",
          "name": "pageid",
          "type": "uint256"
        },
        {
          "indexed": false,
          "internalType": "uint256",
          "name": "revid",
          "type": "uint256"
        },
        {
          "indexed": false,
          "internalType": "string",
          "name": "message",
          "type": "string"
        }
      ],
      "name": "contractAlreadyExist",
      "type": "event"
    },
    {
      "anonymous": false,
      "inputs": [
        {
          "indexed": false,
          "internalType": "address",
          "name": "sender",
          "type": "address"
        },
        {
          "indexed": false,
          "internalType": "uint256",
          "name": "value",
          "type": "uint256"
        },
        {
          "indexed": false,
          "internalType": "uint256",
          "name": "timestamp",
          "type": "uint256"
        }
      ],
      "name": "newDeposit",
      "type": "event"
    },
    {
      "anonymous": false,
      "inputs": [
        {
          "indexed": false,
          "internalType": "string",
          "name": "url",
          "type": "string"
        },
        {
          "indexed": false,
          "internalType": "uint256",
          "name": "outputsize",
          "type": "uint256"
        },
        {
          "components": [
            {
              "internalType": "address",
              "name": "myaddress",
              "type": "address"
            },
            {
              "internalType": "uint256",
              "name": "pageid",
              "type": "uint256"
            },
            {
              "internalType": "uint256",
              "name": "revid",
              "type": "uint256"
            },
            {
              "internalType": "string",
              "name": "url",
              "type": "string"
            },
            {
              "internalType": "string",
              "name": "title",
              "type": "string"
            },
            {
              "internalType": "string",
              "name": "description",
              "type": "string"
            },
            {
              "internalType": "string",
              "name": "lastmodified",
              "type": "string"
            }
          ],
          "indexed": false,
          "internalType": "struct WikiChainUtilities.ArticleOutput[]",
          "name": "outputs",
          "type": "tuple[]"
        }
      ],
      "name": "requestFunction",
      "type": "event"
    },
    {
      "payable": true,
      "stateMutability": "payable",
      "type": "fallback"
    },
    {
      "constant": true,
      "inputs": [],
      "name": "getRegisterCounter",
      "outputs": [
        {
          "internalType": "uint256",
          "name": "",
          "type": "uint256"
        }
      ],
      "payable": false,
      "stateMutability": "view",
      "type": "function"
    },
    {
      "constant": false,
      "inputs": [
        {
          "components": [
            {
              "internalType": "uint256",
              "name": "pageid",
              "type": "uint256"
            },
            {
              "internalType": "uint256",
              "name": "revid",
              "type": "uint256"
            },
            {
              "internalType": "string",
              "name": "title",
              "type": "string"
            },
            {
              "internalType": "string",
              "name": "lastmodified",
              "type": "string"
            },
            {
              "internalType": "string",
              "name": "url",
              "type": "string"
            },
            {
              "internalType": "string",
              "name": "description",
              "type": "string"
            }
          ],
          "internalType": "struct WikiChainUtilities.Article[]",
          "name": "datas",
          "type": "tuple[]"
        }
      ],
      "name": "generateContracts4Articles",
      "outputs": [
        {
          "internalType": "uint256",
          "name": "",
          "type": "uint256"
        }
      ],
      "payable": false,
      "stateMutability": "nonpayable",
      "type": "function"
    },
    {
      "constant": false,
      "inputs": [
        {
          "internalType": "string",
          "name": "url",
          "type": "string"
        }
      ],
      "name": "request",
      "outputs": [
        {
          "components": [
            {
              "internalType": "address",
              "name": "myaddress",
              "type": "address"
            },
            {
              "internalType": "uint256",
              "name": "pageid",
              "type": "uint256"
            },
            {
              "internalType": "uint256",
              "name": "revid",
              "type": "uint256"
            },
            {
              "internalType": "string",
              "name": "url",
              "type": "string"
            },
            {
              "internalType": "string",
              "name": "title",
              "type": "string"
            },
            {
              "internalType": "string",
              "name": "description",
              "type": "string"
            },
            {
              "internalType": "string",
              "name": "lastmodified",
              "type": "string"
            }
          ],
          "internalType": "struct WikiChainUtilities.ArticleOutput[]",
          "name": "",
          "type": "tuple[]"
        }
      ],
      "payable": false,
      "stateMutability": "nonpayable",
      "type": "function"
    },
    {
      "constant": true,
      "inputs": [
        {
          "internalType": "address payable",
          "name": "article",
          "type": "address"
        }
      ],
      "name": "callContract",
      "outputs": [
        {
          "components": [
            {
              "internalType": "address",
              "name": "myaddress",
              "type": "address"
            },
            {
              "internalType": "uint256",
              "name": "pageid",
              "type": "uint256"
            },
            {
              "internalType": "uint256",
              "name": "revid",
              "type": "uint256"
            },
            {
              "internalType": "string",
              "name": "url",
              "type": "string"
            },
            {
              "internalType": "string",
              "name": "title",
              "type": "string"
            },
            {
              "internalType": "string",
              "name": "description",
              "type": "string"
            },
            {
              "internalType": "string",
              "name": "lastmodified",
              "type": "string"
            }
          ],
          "internalType": "struct WikiChainUtilities.ArticleOutput",
          "name": "",
          "type": "tuple"
        }
      ],
      "payable": false,
      "stateMutability": "view",
      "type": "function"
    }
  ],
  "bytecode": "0x60806040526000600155600034111562000051577f45751137d6df48fc3f75b9888b77c9d8f4689c5baafe29811a9a86e43706aecf333442604051620000489392919062000079565b60405180910390a15b6200011c565b6200006281620000e0565b82525050565b6200007381620000d6565b82525050565b600060608201905062000090600083018662000057565b6200009f602083018562000068565b620000ae604083018462000068565b949350505050565b600073ffffffffffffffffffffffffffffffffffffffff82169050919050565b6000819050919050565b6000620000ed82620000f4565b9050919050565b6000620001018262000108565b9050919050565b60006200011582620000b6565b9050919050565b612f66806200012c6000396000f3fe608060405260043610620000445760003560e01c80632c199889146200009f57806368874f1f14620000e3578063714a091f1462000127578063e00d333e146200016b575b600034116200004f57fe5b600080369050146200006057600080fd5b7f45751137d6df48fc3f75b9888b77c9d8f4689c5baafe29811a9a86e43706aecf3334426040516200009593929190620018f1565b60405180910390a1005b348015620000ac57600080fd5b50620000cb6004803603620000c591908101906200113a565b6200019b565b604051620000da919062001997565b60405180910390f35b348015620000f057600080fd5b506200010f6004803603620001099190810190620010c9565b62000356565b6040516200011e919062001a8e565b60405180910390f35b3480156200013457600080fd5b506200015360048036036200014d9190810190620010f5565b62000467565b60405162000162919062001ab2565b60405180910390f35b3480156200017857600080fd5b50620001836200089e565b60405162000192919062001ab2565b60405180910390f35b60606000825111620001e4576040517f08c379a0000000000000000000000000000000000000000000000000000000008152600401620001db9062001a06565b60405180910390fd5b60608060008085604051620001fa919062001850565b90815260200160405180910390208054905014620003095760008460405162000224919062001850565b9081526020016040518091039020805480602002602001604051908101604052809291908181526020016000905b82821015620002f057838290600052602060002090600302016040518060600160405290816000820160009054906101000a900473ffffffffffffffffffffffffffffffffffffffff1673ffffffffffffffffffffffffffffffffffffffff1673ffffffffffffffffffffffffffffffffffffffff168152602001600182015481526020016002820154815250508152602001906001019062000252565b5050505090506200030181620008a8565b91506200030e565b606091505b7f289be94f4e55ffdd2d2374ced5a46694ece450134f744463d99d14ffc85765d7848351846040516200034493929190620019bb565b60405180910390a18192505050919050565b6200036062000bbd565b600073ffffffffffffffffffffffffffffffffffffffff168273ffffffffffffffffffffffffffffffffffffffff161415620003d3576040517f08c379a0000000000000000000000000000000000000000000000000000000008152600401620003ca9062001a4a565b60405180910390fd5b60008290508073ffffffffffffffffffffffffffffffffffffffff166347e468066040518163ffffffff1660e01b815260040160006040518083038186803b1580156200041f57600080fd5b505afa15801562000434573d6000803e3d6000fd5b505050506040513d6000823e3d601f19601f820116820180604052506200045f91908101906200117f565b915050919050565b600080825111620004af576040517f08c379a0000000000000000000000000000000000000000000000000000000008152600401620004a69062001a28565b60405180910390fd5b6000620004bb62000c10565b60008451905060008090505b818110156200089057600062000527878381518110620004e357fe5b602002602001015160800151888481518110620004fc57fe5b6020026020010151600001518985815181106200051557fe5b60200260200101516020015162000a17565b9050600073ffffffffffffffffffffffffffffffffffffffff168173ffffffffffffffffffffffffffffffffffffffff1614620005ec577fc610df69566d0b5361797c491785821866b766e2066df7cce5f19999b41dfba1818884815181106200058d57fe5b602002602001015160800151898581518110620005a657fe5b6020026020010151600001518a8681518110620005bf57fe5b602002602001015160200151604051620005dd94939291906200192e565b60405180910390a15062000882565b6301c9c380604051620005ff9062000c47565b6040518091039082f0801580156200061b573d6000803e3d6000fd5b50905094508473ffffffffffffffffffffffffffffffffffffffff1663497af677308985815181106200064a57fe5b60200260200101516040518363ffffffff1660e01b815260040162000671929190620018bd565b600060405180830381600087803b1580156200068c57600080fd5b505af1158015620006a1573d6000803e3d6000fd5b5050505084846000019073ffffffffffffffffffffffffffffffffffffffff16908173ffffffffffffffffffffffffffffffffffffffff1681525050868281518110620006ea57fe5b6020026020010151602001518460200181815250508682815181106200070c57fe5b60200260200101516000015184604001818152505060008783815181106200073057fe5b6020026020010151608001516040516200074b919062001837565b9081526020016040518091039020849080600181540180825580915050906001820390600052602060002090600302016000909192909190915060008201518160000160006101000a81548173ffffffffffffffffffffffffffffffffffffffff021916908373ffffffffffffffffffffffffffffffffffffffff16021790555060208201518160010155604082015181600201555050506001600081548092919060010191905055507fcf5ddfce47f5a2572d6dc10e03b049efb3d2c822168ddc75412125ff184cb16f84600001518884815181106200082857fe5b6020026020010151608001518985815181106200084157fe5b6020026020010151600001518a86815181106200085a57fe5b60200260200101516020015160405162000878949392919062001869565b60405180910390a1505b8080600101915050620004c7565b506001549350505050919050565b6000600154905090565b60606000825111620008f1576040517f08c379a0000000000000000000000000000000000000000000000000000000008152600401620008e89062001a6c565b60405180910390fd5b606082516040519080825280602002602001820160405280156200093257816020015b6200091e62000c55565b815260200190600190039081620009145790505b50905060005b835181101562000a0d5760008482815181106200095157fe5b60200260200101516000015190508073ffffffffffffffffffffffffffffffffffffffff166347e468066040518163ffffffff1660e01b815260040160006040518083038186803b158015620009a657600080fd5b505afa158015620009bb573d6000803e3d6000fd5b505050506040513d6000823e3d601f19601f82011682018060405250620009e691908101906200117f565b838381518110620009f357fe5b602002602001018190525050808060010191505062000938565b5080915050919050565b600060606000808660405162000a2e919062001850565b908152602001604051809103902080549050111562000bb05760008560405162000a59919062001850565b9081526020016040518091039020805480602002602001604051908101604052809291908181526020016000905b8282101562000b2557838290600052602060002090600302016040518060600160405290816000820160009054906101000a900473ffffffffffffffffffffffffffffffffffffffff1673ffffffffffffffffffffffffffffffffffffffff1673ffffffffffffffffffffffffffffffffffffffff168152602001600182015481526020016002820154815250508152602001906001019062000a87565b50505050905060005b815181101562000bae578482828151811062000b4657fe5b60200260200101516040015114801562000b7757508382828151811062000b6957fe5b602002602001015160200151145b1562000ba05781818151811062000b8a57fe5b6020026020010151600001519250505062000bb6565b808060010191505062000b2e565b505b60009150505b9392505050565b6040518060e00160405280600073ffffffffffffffffffffffffffffffffffffffff1681526020016000815260200160008152602001606081526020016060815260200160608152602001606081525090565b6040518060600160405280600073ffffffffffffffffffffffffffffffffffffffff16815260200160008152602001600081525090565b6111f58062001d2f83390190565b6040518060e00160405280600073ffffffffffffffffffffffffffffffffffffffff1681526020016000815260200160008152602001606081526020016060815260200160608152602001606081525090565b60008151905062000cb98162001ce0565b92915050565b60008135905062000cd08162001cfa565b92915050565b600082601f83011262000ce857600080fd5b813562000cff62000cf98262001afd565b62001acf565b9150818183526020840193506020810190508360005b8381101562000d49578135860162000d2e888262000f8c565b84526020840193506020830192505060018101905062000d15565b5050505092915050565b600082601f83011262000d6557600080fd5b813562000d7c62000d768262001b26565b62001acf565b9150808252602083016020830185838301111562000d9957600080fd5b62000da683828462001c8a565b50505092915050565b600082601f83011262000dc157600080fd5b815162000dd862000dd28262001b26565b62001acf565b9150808252602083016020830185838301111562000df557600080fd5b62000e0283828462001c99565b50505092915050565b600082601f83011262000e1d57600080fd5b813562000e3462000e2e8262001b53565b62001acf565b9150808252602083016020830185838301111562000e5157600080fd5b62000e5e83828462001c8a565b50505092915050565b600060e0828403121562000e7a57600080fd5b62000e8660e062001acf565b9050600062000e988482850162000ca8565b600083015250602062000eae84828501620010b2565b602083015250604062000ec484828501620010b2565b604083015250606082015167ffffffffffffffff81111562000ee557600080fd5b62000ef38482850162000daf565b606083015250608082015167ffffffffffffffff81111562000f1457600080fd5b62000f228482850162000daf565b60808301525060a082015167ffffffffffffffff81111562000f4357600080fd5b62000f518482850162000daf565b60a08301525060c082015167ffffffffffffffff81111562000f7257600080fd5b62000f808482850162000daf565b60c08301525092915050565b600060c0828403121562000f9f57600080fd5b62000fab60c062001acf565b9050600062000fbd848285016200109b565b600083015250602062000fd3848285016200109b565b602083015250604082013567ffffffffffffffff81111562000ff457600080fd5b620010028482850162000d53565b604083015250606082013567ffffffffffffffff8111156200102357600080fd5b620010318482850162000d53565b606083015250608082013567ffffffffffffffff8111156200105257600080fd5b620010608482850162000d53565b60808301525060a082013567ffffffffffffffff8111156200108157600080fd5b6200108f8482850162000d53565b60a08301525092915050565b600081359050620010ac8162001d14565b92915050565b600081519050620010c38162001d14565b92915050565b600060208284031215620010dc57600080fd5b6000620010ec8482850162000cbf565b91505092915050565b6000602082840312156200110857600080fd5b600082013567ffffffffffffffff8111156200112357600080fd5b620011318482850162000cd6565b91505092915050565b6000602082840312156200114d57600080fd5b600082013567ffffffffffffffff8111156200116857600080fd5b620011768482850162000e0b565b91505092915050565b6000602082840312156200119257600080fd5b600082015167ffffffffffffffff811115620011ad57600080fd5b620011bb8482850162000e67565b91505092915050565b6000620011d28383620016ac565b905092915050565b620011e58162001c4e565b82525050565b620011f68162001bfc565b82525050565b620012078162001bfc565b82525050565b60006200121a8262001b90565b62001226818562001bbe565b9350836020820285016200123a8562001b80565b8060005b858110156200127c57848403895281516200125a8582620011c4565b9450620012678362001bb1565b925060208a019950506001810190506200123e565b50829750879550505050505092915050565b60006200129b8262001ba6565b620012a7818562001be0565b9350620012b981856020860162001c99565b620012c48162001ccf565b840191505092915050565b6000620012dc8262001ba6565b620012e8818562001bf1565b9350620012fa81856020860162001c99565b80840191505092915050565b6000620013138262001b9b565b6200131f818562001bcf565b93506200133181856020860162001c99565b6200133c8162001ccf565b840191505092915050565b6000620013548262001b9b565b62001360818562001be0565b93506200137281856020860162001c99565b6200137d8162001ccf565b840191505092915050565b6000620013958262001b9b565b620013a1818562001bf1565b9350620013b381856020860162001c99565b80840191505092915050565b6000620013ce60438362001be0565b91507f5468652075726c206973206e6f7420636f72726563742e20546865207661726960008301527f61626c6520697320656d70747920666f722074686973207472616e736163746960208301527f6f6e2e00000000000000000000000000000000000000000000000000000000006040830152606082019050919050565b60006200145c60348362001be0565b91507f546865206b65792d76616c756520282075726c202d3e207061676569642c726560008301527f766964202920616c72656164792065786973742e0000000000000000000000006020830152604082019050919050565b6000620014c4602a8362001be0565b91507f54686520646174616665656420697320656d7074792e20506c6561736520666960008301527f6c6c206974206f757421000000000000000000000000000000000000000000006020830152604082019050919050565b60006200152c603b8362001be0565b91507f54686520636f6e74726163742061646472657373206973206e6f742076616c6960008301527f642e20506c65617365206769766520616e6f74686572206f6e652e00000000006020830152604082019050919050565b60006200159460228362001be0565b91507f5468657265206973206e6f20636f6e747261637420746f20636865636b206f7560008301527f742e0000000000000000000000000000000000000000000000000000000000006020830152604082019050919050565b600060e083016000830151620016076000860182620011eb565b5060208301516200161c602086018262001815565b50604083015162001631604086018262001815565b50606083015184820360608601526200164b828262001306565b9150506080830151848203608086015262001667828262001306565b91505060a083015184820360a086015262001683828262001306565b91505060c083015184820360c08601526200169f828262001306565b9150508091505092915050565b600060e083016000830151620016c66000860182620011eb565b506020830151620016db602086018262001815565b506040830151620016f0604086018262001815565b50606083015184820360608601526200170a828262001306565b9150506080830151848203608086015262001726828262001306565b91505060a083015184820360a086015262001742828262001306565b91505060c083015184820360c08601526200175e828262001306565b9150508091505092915050565b600060c08301600083015162001785600086018262001815565b5060208301516200179a602086018262001815565b5060408301518482036040860152620017b4828262001306565b91505060608301518482036060860152620017d0828262001306565b91505060808301518482036080860152620017ec828262001306565b91505060a083015184820360a086015262001808828262001306565b9150508091505092915050565b620018208162001c44565b82525050565b620018318162001c44565b82525050565b600062001845828462001388565b915081905092915050565b60006200185e8284620012cf565b915081905092915050565b6000608082019050620018806000830187620011da565b818103602083015262001894818662001347565b9050620018a5604083018562001826565b620018b4606083018462001826565b95945050505050565b6000604082019050620018d46000830185620011da565b8181036020830152620018e881846200176b565b90509392505050565b6000606082019050620019086000830186620011da565b62001917602083018562001826565b62001926604083018462001826565b949350505050565b600060a082019050620019456000830187620011fc565b818103602083015262001959818662001347565b90506200196a604083018562001826565b62001979606083018462001826565b81810360808301526200198c816200144d565b905095945050505050565b60006020820190508181036000830152620019b381846200120d565b905092915050565b60006060820190508181036000830152620019d781866200128e565b9050620019e8602083018562001826565b8181036040830152620019fc81846200120d565b9050949350505050565b6000602082019050818103600083015262001a2181620013bf565b9050919050565b6000602082019050818103600083015262001a4381620014b5565b9050919050565b6000602082019050818103600083015262001a65816200151d565b9050919050565b6000602082019050818103600083015262001a878162001585565b9050919050565b6000602082019050818103600083015262001aaa8184620015ed565b905092915050565b600060208201905062001ac9600083018462001826565b92915050565b6000604051905081810181811067ffffffffffffffff8211171562001af357600080fd5b8060405250919050565b600067ffffffffffffffff82111562001b1557600080fd5b602082029050602081019050919050565b600067ffffffffffffffff82111562001b3e57600080fd5b601f19601f8301169050602081019050919050565b600067ffffffffffffffff82111562001b6b57600080fd5b601f19601f8301169050602081019050919050565b6000819050602082019050919050565b600081519050919050565b600081519050919050565b600081519050919050565b6000602082019050919050565b600082825260208201905092915050565b600082825260208201905092915050565b600082825260208201905092915050565b600081905092915050565b600062001c098262001c24565b9050919050565b600062001c1d8262001c24565b9050919050565b600073ffffffffffffffffffffffffffffffffffffffff82169050919050565b6000819050919050565b600062001c5b8262001c62565b9050919050565b600062001c6f8262001c76565b9050919050565b600062001c838262001c24565b9050919050565b82818337600083830152505050565b60005b8381101562001cb957808201518184015260208101905062001c9c565b8381111562001cc9576000848401525b50505050565b6000601f19601f8301169050919050565b62001ceb8162001bfc565b811462001cf757600080fd5b50565b62001d058162001c10565b811462001d1157600080fd5b50565b62001d1f8162001c44565b811462001d2b57600080fd5b5056fe608060405260003411156200004c577ff5e9ca8cbdceb60d0b36065aba648e8b4572e6ae2a6b0518f04e389cc78836cd333442604051620000439392919062000074565b60405180910390a15b62000117565b6200005d81620000db565b82525050565b6200006e81620000d1565b82525050565b60006060820190506200008b600083018662000052565b6200009a602083018562000063565b620000a9604083018462000063565b949350505050565b600073ffffffffffffffffffffffffffffffffffffffff82169050919050565b6000819050919050565b6000620000e882620000ef565b9050919050565b6000620000fc8262000103565b9050919050565b60006200011082620000b1565b9050919050565b6110ce80620001276000396000f3fe6080604052600436106100865760003560e01c80634a79d50c116100595780634a79d50c1461017d5780635600f04f146101a857806367382e8c146101d3578063be456325146101fe578063c68226f81461021557610086565b80630bc8d6ac146100d357806318534ce6146100fe57806347e4680614610129578063497af67714610154575b6000803690501461009657600080fd5b7ff5e9ca8cbdceb60d0b36065aba648e8b4572e6ae2a6b0518f04e389cc78836cd3334426040516100c993929190610e67565b60405180910390a1005b3480156100df57600080fd5b506100e8610240565b6040516100f59190610e9e565b60405180910390f35b34801561010a57600080fd5b506101136102de565b6040516101209190610e9e565b60405180910390f35b34801561013557600080fd5b5061013e61037c565b60405161014b9190610ec0565b60405180910390f35b34801561016057600080fd5b5061017b60048036036101769190810190610b4e565b61063e565b005b34801561018957600080fd5b50610192610747565b60405161019f9190610e9e565b60405180910390f35b3480156101b457600080fd5b506101bd6107e5565b6040516101ca9190610e9e565b60405180910390f35b3480156101df57600080fd5b506101e8610883565b6040516101f59190610ee2565b60405180910390f35b34801561020a57600080fd5b50610213610889565b005b34801561022157600080fd5b5061022a6108d6565b6040516102379190610ee2565b60405180910390f35b60058054600181600116156101000203166002900480601f0160208091040260200160405190810160405280929190818152602001828054600181600116156101000203166002900480156102d65780601f106102ab576101008083540402835291602001916102d6565b820191906000526020600020905b8154815290600101906020018083116102b957829003601f168201915b505050505081565b60048054600181600116156101000203166002900480601f0160208091040260200160405190810160405280929190818152602001828054600181600116156101000203166002900480156103745780601f1061034957610100808354040283529160200191610374565b820191906000526020600020905b81548152906001019060200180831161035757829003601f168201915b505050505081565b6103846108dc565b6040518060e001604052803073ffffffffffffffffffffffffffffffffffffffff1681526020016000548152602001600154815260200160028054600181600116156101000203166002900480601f0160208091040260200160405190810160405280929190818152602001828054600181600116156101000203166002900480156104515780601f1061042657610100808354040283529160200191610451565b820191906000526020600020905b81548152906001019060200180831161043457829003601f168201915b5050505050815260200160038054600181600116156101000203166002900480601f0160208091040260200160405190810160405280929190818152602001828054600181600116156101000203166002900480156104f15780601f106104c6576101008083540402835291602001916104f1565b820191906000526020600020905b8154815290600101906020018083116104d457829003601f168201915b5050505050815260200160048054600181600116156101000203166002900480601f0160208091040260200160405190810160405280929190818152602001828054600181600116156101000203166002900480156105915780601f1061056657610100808354040283529160200191610591565b820191906000526020600020905b81548152906001019060200180831161057457829003601f168201915b5050505050815260200160058054600181600116156101000203166002900480601f0160208091040260200160405190810160405280929190818152602001828054600181600116156101000203166002900480156106315780601f1061060657610100808354040283529160200191610631565b820191906000526020600020905b81548152906001019060200180831161061457829003601f168201915b5050505050815250905090565b81600660006101000a81548173ffffffffffffffffffffffffffffffffffffffff021916908373ffffffffffffffffffffffffffffffffffffffff160217905550806000015160008190555080602001516001819055508060400151600390805190602001906106af92919061092f565b508060600151600590805190602001906106ca92919061092f565b508060800151600290805190602001906106e592919061092f565b508060a001516004908051906020019061070092919061092f565b507f7b3c1e320e5e7fe3ab39c97301ad7d1ae0d4102131247b3a3cc841f62fbd187030600260005460015460405161073b9493929190610d90565b60405180910390a15050565b60038054600181600116156101000203166002900480601f0160208091040260200160405190810160405280929190818152602001828054600181600116156101000203166002900480156107dd5780601f106107b2576101008083540402835291602001916107dd565b820191906000526020600020905b8154815290600101906020018083116107c057829003601f168201915b505050505081565b60028054600181600116156101000203166002900480601f01602080910402602001604051908101604052809291908181526020018280546001816001161561010002031660029004801561087b5780601f106108505761010080835404028352916020019161087b565b820191906000526020600020905b81548152906001019060200180831161085e57829003601f168201915b505050505081565b60005481565b7fb9fba9299416d17b0fcc10a7320d508ef5a1f6be319ff1d12afe717cb3958fb53060026000546001546003600560046040516108cc9796959493929190610ddc565b60405180910390a1565b60015481565b6040518060e00160405280600073ffffffffffffffffffffffffffffffffffffffff1681526020016000815260200160008152602001606081526020016060815260200160608152602001606081525090565b828054600181600116156101000203166002900490600052602060002090601f016020900481019282601f1061097057805160ff191683800117855561099e565b8280016001018555821561099e579182015b8281111561099d578251825591602001919060010190610982565b5b5090506109ab91906109af565b5090565b6109d191905b808211156109cd5760008160009055506001016109b5565b5090565b90565b6000813590506109e38161105d565b92915050565b600082601f8301126109fa57600080fd5b8135610a0d610a0882610f2a565b610efd565b91508082526020830160208301858383011115610a2957600080fd5b610a3483828461100a565b50505092915050565b600060c08284031215610a4f57600080fd5b610a5960c0610efd565b90506000610a6984828501610b39565b6000830152506020610a7d84828501610b39565b602083015250604082013567ffffffffffffffff811115610a9d57600080fd5b610aa9848285016109e9565b604083015250606082013567ffffffffffffffff811115610ac957600080fd5b610ad5848285016109e9565b606083015250608082013567ffffffffffffffff811115610af557600080fd5b610b01848285016109e9565b60808301525060a082013567ffffffffffffffff811115610b2157600080fd5b610b2d848285016109e9565b60a08301525092915050565b600081359050610b4881611074565b92915050565b60008060408385031215610b6157600080fd5b6000610b6f858286016109d4565b925050602083013567ffffffffffffffff811115610b8c57600080fd5b610b9885828601610a3d565b9150509250929050565b610bab81610fd4565b82525050565b610bba81610f98565b82525050565b6000610bcb82610f6b565b610bd58185610f76565b9350610be5818560208601611019565b610bee8161104c565b840191505092915050565b6000610c0482610f6b565b610c0e8185610f87565b9350610c1e818560208601611019565b610c278161104c565b840191505092915050565b600081546001811660008114610c4f5760018114610c7557610cb9565b607f6002830416610c608187610f87565b955060ff198316865260208601935050610cb9565b60028204610c838187610f87565b9550610c8e85610f56565b60005b82811015610cb057815481890152600182019150602081019050610c91565b80880195505050505b505092915050565b600060e083016000830151610cd96000860182610bb1565b506020830151610cec6020860182610d72565b506040830151610cff6040860182610d72565b5060608301518482036060860152610d178282610bc0565b91505060808301518482036080860152610d318282610bc0565b91505060a083015184820360a0860152610d4b8282610bc0565b91505060c083015184820360c0860152610d658282610bc0565b9150508091505092915050565b610d7b81610fca565b82525050565b610d8a81610fca565b82525050565b6000608082019050610da56000830187610ba2565b8181036020830152610db78186610c32565b9050610dc66040830185610d81565b610dd36060830184610d81565b95945050505050565b600060e082019050610df1600083018a610ba2565b8181036020830152610e038189610c32565b9050610e126040830188610d81565b610e1f6060830187610d81565b8181036080830152610e318186610c32565b905081810360a0830152610e458185610c32565b905081810360c0830152610e598184610c32565b905098975050505050505050565b6000606082019050610e7c6000830186610ba2565b610e896020830185610d81565b610e966040830184610d81565b949350505050565b60006020820190508181036000830152610eb88184610bf9565b905092915050565b60006020820190508181036000830152610eda8184610cc1565b905092915050565b6000602082019050610ef76000830184610d81565b92915050565b6000604051905081810181811067ffffffffffffffff82111715610f2057600080fd5b8060405250919050565b600067ffffffffffffffff821115610f4157600080fd5b601f19601f8301169050602081019050919050565b60008190508160005260206000209050919050565b600081519050919050565b600082825260208201905092915050565b600082825260208201905092915050565b6000610fa382610faa565b9050919050565b600073ffffffffffffffffffffffffffffffffffffffff82169050919050565b6000819050919050565b6000610fdf82610fe6565b9050919050565b6000610ff182610ff8565b9050919050565b600061100382610faa565b9050919050565b82818337600083830152505050565b60005b8381101561103757808201518184015260208101905061101c565b83811115611046576000848401525b50505050565b6000601f19601f8301169050919050565b61106681610f98565b811461107157600080fd5b50565b61107d81610fca565b811461108857600080fd5b5056fea365627a7a72315820d2bf909ec26412932825a511ff5f1885266adc051c070ce9a04684ef818b49c66c6578706572696d656e74616cf564736f6c634300050c0040a365627a7a723158205ac70ef1442d3c07d226e2327dfe1924e753b716773028f8d595ea73098446b56c6578706572696d656e74616cf564736f6c634300050c0040",
  "source": "pragma solidity ^0.5.0;\npragma experimental ABIEncoderV2;\n\nimport \"./WikiChainArticle.sol\";\nimport \"./WikiChainUtilities.sol\";\n\ncontract WikiChain{\n    \n   \tevent contractAlreadyExist(address contractaddress, string url, uint pageid, uint revid, string message);\n\tevent contractAdded(address contractaddress, string url, uint pageid, uint revid);\n\tevent requestFunction(string url, uint outputsize, WikiChainUtilities.ArticleOutput [] outputs);\n\tevent callContractData(address contractaddress , string url, uint pageid, uint revid, string title, string timestamp, string hash_description);\n\tevent newDeposit( address sender, uint value, uint timestamp);\n\t\n\tmodifier positiveValue{\n\t    assert(msg.value > 0);\n\t    _;\n\t}\n\t\n\t// The register: save in \"storage\" per default.\n    mapping (string => WikiChainUtilities.Address2Id []) private URL2Addresses ;\n    uint private counter = 0;\n      \n    // The constructor\n    constructor() public payable { \n    \tif(msg.value > 0){\n    \t\temit newDeposit( msg.sender, msg.value, block.timestamp);\n    \t}\n    }\n\n    // If the contract received some ether, it will handel it\n\tfunction () external payable positiveValue {\n\t    require(msg.data.length == 0);\n\t    emit newDeposit( msg.sender, msg.value, block.timestamp);\n\t}\n\t\n\tfunction getRegisterCounter() public view returns(uint){\n\t    return counter;\n\t}\n\t   \n    /* \n    * As a Factory, this method will generate new instances of the contract WikiChainArticle with the given datas.\n    */\n    function generateContracts4Articles( WikiChainUtilities.Article [] memory datas) public returns (uint) {\n       \n       // Minimun one entry should be available. throw a exception if the input array is empty.\n        require (datas.length > 0, \"The datafeed is empty. Please fill it out!\");\n        \n        WikiChainArticle tmp;\n        WikiChainUtilities.Address2Id memory a2p;\n        \n        uint len = uint(datas.length);\n        \n\t    for(uint i=0; i<len; i++){\n\t        \n\t        // We can verified if the data entry is correct ...\n\t        \n\t        // We control if a contract with the given url, pageid and revid already exist. And don't create a new contract if it is the case.\n\t        address oldAddress = lookup(datas[i].url, datas[i].pageid, datas[i].revid);\n\t        if( oldAddress != address(0)) {\n\t           emit contractAlreadyExist(oldAddress,datas[i].url, datas[i].pageid, datas[i].revid, \"The key-value ( url -> pageid,revid ) already exist.\");\n\t           continue;\n\t        }\n\t        \n\t        //A new contract is generated for every single tuple. We need to sent some Gas for the writing operation in the contract storage.\n\t        tmp = (new WikiChainArticle).value(30000000)();\n\t        tmp.setDatas(address(this), datas[i]);\n\t  \t        \n\t        // Save the new value in the register URL2Addresses\n    \t    a2p.contractaddress = address(tmp);\n    \t  \ta2p.revid = datas[i].revid;\n    \t  \ta2p.pageid = datas[i].pageid;\n    \t    \n    \t   // The new contract for the article must already exist at this point \n    \t   //assert(a2p.contractaddress != address(0)); // we have an empty address most of the time. Because the code execution need less  time than the blockchain need to accept and give an address back\n    \t   \n    \t   // Even if the url already exist as key, the new infos will be save in the array mapping this url.\n    \t   URL2Addresses[datas[i].url].push(a2p);\n    \t   counter++;\n    \t   emit contractAdded(a2p.contractaddress, datas[i].url, datas[i].pageid, datas[i].revid);\n\t    }\n\n\t    return counter;\n    }\n    \n    /*\n     * When the user is searching a url (coming from wikipedia),\n        1. the url should not be empty\n        2. we first lookup in the register \"URL2Addresses\", if some contracts exist for the given url.\n        3. If there is no entry in the register, we give a empty output back.\n        4. Otherwise, we would call the different contracts, collect the saved informations and sent it back as return value.\n     *\n    */\n   \tfunction request( string memory url) public returns (WikiChainUtilities.ArticleOutput [] memory) {\n        \n        // lookup in the register if a given url already exist before crawling the blockchain for the corresponding contracts\n        require (bytes(url).length > 0, \"The url is not correct. The variable is empty for this transaction.\");\n        \n        WikiChainUtilities.ArticleOutput [] memory outputs;\n        WikiChainUtilities.Address2Id [] memory results;\n        \n        // Control if there is already a entry for the given url in the register.\n        if ( URL2Addresses[url].length != 0 ){\n\t        results = URL2Addresses[url];\n\t        \n\t       // Call the informations out of the contract addresses, we just find.\n\t       outputs = callContracts(results);\n\t        \n\t    } else{\n\t        // There is not entry for the given url. Make sure the outputs array is empty.\n\t        delete outputs;\n\t    }\n\t    \n\t    emit requestFunction(url, outputs.length, outputs);\n\n\t    return outputs;\n      \n    }\n     \n    /*\n     * Lookup in the register if the given url, pageid and revid have already saved.\n     *\n    */\n  \tfunction lookup ( string memory url, uint pageid, uint revid) internal view returns (address) {\n        // lookp in the register if a given url already exist before crawling the blockchain for the corresponding contracts\n        WikiChainUtilities.Address2Id [] memory results;\n        \n        if ( URL2Addresses[url].length > 0 ){\n\t        results = URL2Addresses[url];\n\t        \n\t        // Search for the given pair <pageid,revid>\n\t         for (uint i; i< results.length;i++){\n\t            if( results[i].pageid == pageid && results[i].revid == revid ){\n\t                return results[i].contractaddress;\n\t            }\n\t         }\n\t    } \n\t    return address(0);\n    }\n    \n    /*\n     * Call the contracts using the address found in the register.\n     *\n    */\n   \tfunction callContracts(WikiChainUtilities.Address2Id [] memory results) internal view returns (WikiChainUtilities.ArticleOutput [] memory){\n\t    \n\t    require (results.length > 0, \"There is no contract to check out.\");\n\t    \n\t    WikiChainUtilities.ArticleOutput [] memory ops =  new WikiChainUtilities.ArticleOutput [](results.length);\n\t    for (uint i; i< results.length;i++){\n\t        WikiChainArticle tmp = WikiChainArticle(results[i].contractaddress);\n            ops[i] = tmp.toString() ;\n        }\n\t   return ops;\n\t}\n\n\tfunction callContract(address payable article) public view returns (WikiChainUtilities.ArticleOutput memory){\n\t    \n\t    require (article != address(0), \"The contract address is not valid. Please give another one.\");\n\t    WikiChainArticle tmp = WikiChainArticle(article);\n\t    \n\t    //emit callContractData(article ,tmp.url(), tmp.pageid(), tmp.revid(), tmp.title(), tmp.lastmodified(), tmp.hash_description());\n\t   \n\t   return tmp.toString();\n\t}\n\t\n}",
  "sourcePath": "/home/ngani/Dokumente/projects/WikiChain/contracts/WikiChain.sol",
  "compiler": {
    "name": "solc",
    "version": "0.5.12+commit.7709ece9.Emscripten.clang"
  },
  "schemaVersion": "3.0.19",
  "updatedAt": "2019-12-21T18:44:30.133Z",
  "networkType": "ethereum",
  "devdoc": {
    "methods": {}
  },
  "userdoc": {
    "methods": {}
  }
}